{
  "contractName": "LocalAuthority",
  "abi": [
    {
      "anonymous": false,
      "inputs": [
        {
          "components": [
            {
              "internalType": "uint256",
              "name": "AMM",
              "type": "uint256"
            },
            {
              "internalType": "string",
              "name": "dateAMM",
              "type": "string"
            },
            {
              "internalType": "enum LocalAuthority.AMMStatus",
              "name": "status",
              "type": "uint8"
            },
            {
              "components": [
                {
                  "internalType": "string",
                  "name": "nom",
                  "type": "string"
                },
                {
                  "internalType": "string",
                  "name": "countryCode",
                  "type": "string"
                }
              ],
              "internalType": "struct Laboratoire",
              "name": "lab",
              "type": "tuple"
            },
            {
              "components": [
                {
                  "internalType": "string",
                  "name": "nom",
                  "type": "string"
                },
                {
                  "internalType": "string",
                  "name": "dosage",
                  "type": "string"
                },
                {
                  "internalType": "string",
                  "name": "forme",
                  "type": "string"
                },
                {
                  "internalType": "string",
                  "name": "presentation",
                  "type": "string"
                },
                {
                  "internalType": "string",
                  "name": "conditionnement",
                  "type": "string"
                },
                {
                  "internalType": "string",
                  "name": "specification",
                  "type": "string"
                },
                {
                  "internalType": "string",
                  "name": "dci",
                  "type": "string"
                },
                {
                  "internalType": "string",
                  "name": "classement_VEIC",
                  "type": "string"
                },
                {
                  "internalType": "string",
                  "name": "classe_therapeutic",
                  "type": "string"
                },
                {
                  "internalType": "string",
                  "name": "sous_classe",
                  "type": "string"
                },
                {
                  "internalType": "string",
                  "name": "tableau",
                  "type": "string"
                },
                {
                  "internalType": "string",
                  "name": "duree_conservation",
                  "type": "string"
                },
                {
                  "internalType": "string",
                  "name": "generique",
                  "type": "string"
                }
              ],
              "internalType": "struct Medicament",
              "name": "medicament",
              "type": "tuple"
            }
          ],
          "indexed": false,
          "internalType": "struct LocalAuthority.AMM",
          "name": "amm",
          "type": "tuple"
        }
      ],
      "name": "AMMAdded",
      "type": "event"
    },
    {
      "anonymous": false,
      "inputs": [
        {
          "components": [
            {
              "internalType": "uint256",
              "name": "AMM",
              "type": "uint256"
            },
            {
              "internalType": "string",
              "name": "dateAMM",
              "type": "string"
            },
            {
              "internalType": "enum LocalAuthority.AMMStatus",
              "name": "status",
              "type": "uint8"
            },
            {
              "components": [
                {
                  "internalType": "string",
                  "name": "nom",
                  "type": "string"
                },
                {
                  "internalType": "string",
                  "name": "countryCode",
                  "type": "string"
                }
              ],
              "internalType": "struct Laboratoire",
              "name": "lab",
              "type": "tuple"
            },
            {
              "components": [
                {
                  "internalType": "string",
                  "name": "nom",
                  "type": "string"
                },
                {
                  "internalType": "string",
                  "name": "dosage",
                  "type": "string"
                },
                {
                  "internalType": "string",
                  "name": "forme",
                  "type": "string"
                },
                {
                  "internalType": "string",
                  "name": "presentation",
                  "type": "string"
                },
                {
                  "internalType": "string",
                  "name": "conditionnement",
                  "type": "string"
                },
                {
                  "internalType": "string",
                  "name": "specification",
                  "type": "string"
                },
                {
                  "internalType": "string",
                  "name": "dci",
                  "type": "string"
                },
                {
                  "internalType": "string",
                  "name": "classement_VEIC",
                  "type": "string"
                },
                {
                  "internalType": "string",
                  "name": "classe_therapeutic",
                  "type": "string"
                },
                {
                  "internalType": "string",
                  "name": "sous_classe",
                  "type": "string"
                },
                {
                  "internalType": "string",
                  "name": "tableau",
                  "type": "string"
                },
                {
                  "internalType": "string",
                  "name": "duree_conservation",
                  "type": "string"
                },
                {
                  "internalType": "string",
                  "name": "generique",
                  "type": "string"
                }
              ],
              "internalType": "struct Medicament",
              "name": "medicament",
              "type": "tuple"
            }
          ],
          "indexed": false,
          "internalType": "struct LocalAuthority.AMM",
          "name": "amm",
          "type": "tuple"
        }
      ],
      "name": "AMMDeleted",
      "type": "event"
    },
    {
      "anonymous": false,
      "inputs": [
        {
          "components": [
            {
              "internalType": "uint256",
              "name": "AMM",
              "type": "uint256"
            },
            {
              "internalType": "string",
              "name": "dateAMM",
              "type": "string"
            },
            {
              "internalType": "enum LocalAuthority.AMMStatus",
              "name": "status",
              "type": "uint8"
            },
            {
              "components": [
                {
                  "internalType": "string",
                  "name": "nom",
                  "type": "string"
                },
                {
                  "internalType": "string",
                  "name": "countryCode",
                  "type": "string"
                }
              ],
              "internalType": "struct Laboratoire",
              "name": "lab",
              "type": "tuple"
            },
            {
              "components": [
                {
                  "internalType": "string",
                  "name": "nom",
                  "type": "string"
                },
                {
                  "internalType": "string",
                  "name": "dosage",
                  "type": "string"
                },
                {
                  "internalType": "string",
                  "name": "forme",
                  "type": "string"
                },
                {
                  "internalType": "string",
                  "name": "presentation",
                  "type": "string"
                },
                {
                  "internalType": "string",
                  "name": "conditionnement",
                  "type": "string"
                },
                {
                  "internalType": "string",
                  "name": "specification",
                  "type": "string"
                },
                {
                  "internalType": "string",
                  "name": "dci",
                  "type": "string"
                },
                {
                  "internalType": "string",
                  "name": "classement_VEIC",
                  "type": "string"
                },
                {
                  "internalType": "string",
                  "name": "classe_therapeutic",
                  "type": "string"
                },
                {
                  "internalType": "string",
                  "name": "sous_classe",
                  "type": "string"
                },
                {
                  "internalType": "string",
                  "name": "tableau",
                  "type": "string"
                },
                {
                  "internalType": "string",
                  "name": "duree_conservation",
                  "type": "string"
                },
                {
                  "internalType": "string",
                  "name": "generique",
                  "type": "string"
                }
              ],
              "internalType": "struct Medicament",
              "name": "medicament",
              "type": "tuple"
            }
          ],
          "indexed": false,
          "internalType": "struct LocalAuthority.AMM",
          "name": "amm",
          "type": "tuple"
        }
      ],
      "name": "AMMSuspended",
      "type": "event"
    },
    {
      "anonymous": false,
      "inputs": [
        {
          "components": [
            {
              "internalType": "address",
              "name": "sender",
              "type": "address"
            },
            {
              "internalType": "string",
              "name": "image",
              "type": "string"
            },
            {
              "internalType": "string",
              "name": "longitude",
              "type": "string"
            },
            {
              "internalType": "string",
              "name": "latitude",
              "type": "string"
            },
            {
              "internalType": "string",
              "name": "nom",
              "type": "string"
            },
            {
              "internalType": "string",
              "name": "dosage",
              "type": "string"
            },
            {
              "internalType": "string",
              "name": "forme",
              "type": "string"
            },
            {
              "internalType": "string",
              "name": "presentation",
              "type": "string"
            }
          ],
          "indexed": false,
          "internalType": "struct LocalAuthority.Reclamation",
          "name": "reclamation",
          "type": "tuple"
        }
      ],
      "name": "reclamationReceived",
      "type": "event"
    },
    {
      "inputs": [],
      "name": "owner",
      "outputs": [
        {
          "internalType": "address",
          "name": "",
          "type": "address"
        }
      ],
      "stateMutability": "view",
      "type": "function",
      "constant": true
    },
    {
      "inputs": [
        {
          "internalType": "address",
          "name": "newOwner",
          "type": "address"
        }
      ],
      "name": "transferOwnership",
      "outputs": [],
      "stateMutability": "nonpayable",
      "type": "function"
    },
    {
      "inputs": [
        {
          "internalType": "string",
          "name": "nom",
          "type": "string"
        },
        {
          "internalType": "string",
          "name": "dosage",
          "type": "string"
        },
        {
          "internalType": "string",
          "name": "forme",
          "type": "string"
        },
        {
          "internalType": "string",
          "name": "presentation",
          "type": "string"
        }
      ],
      "name": "checkDrugVeracity",
      "outputs": [
        {
          "internalType": "bool",
          "name": "",
          "type": "bool"
        }
      ],
      "stateMutability": "view",
      "type": "function",
      "constant": true
    },
    {
      "inputs": [
        {
          "components": [
            {
              "internalType": "string",
              "name": "nom",
              "type": "string"
            },
            {
              "internalType": "string",
              "name": "dosage",
              "type": "string"
            },
            {
              "internalType": "string",
              "name": "forme",
              "type": "string"
            },
            {
              "internalType": "string",
              "name": "presentation",
              "type": "string"
            },
            {
              "internalType": "string",
              "name": "conditionnement",
              "type": "string"
            },
            {
              "internalType": "string",
              "name": "specification",
              "type": "string"
            },
            {
              "internalType": "string",
              "name": "dci",
              "type": "string"
            },
            {
              "internalType": "string",
              "name": "classement_VEIC",
              "type": "string"
            },
            {
              "internalType": "string",
              "name": "classe_therapeutic",
              "type": "string"
            },
            {
              "internalType": "string",
              "name": "sous_classe",
              "type": "string"
            },
            {
              "internalType": "string",
              "name": "tableau",
              "type": "string"
            },
            {
              "internalType": "string",
              "name": "duree_conservation",
              "type": "string"
            },
            {
              "internalType": "string",
              "name": "generique",
              "type": "string"
            }
          ],
          "internalType": "struct Medicament",
          "name": "medicament",
          "type": "tuple"
        },
        {
          "internalType": "uint256",
          "name": "idAMM",
          "type": "uint256"
        },
        {
          "internalType": "string",
          "name": "date",
          "type": "string"
        },
        {
          "components": [
            {
              "internalType": "string",
              "name": "nom",
              "type": "string"
            },
            {
              "internalType": "string",
              "name": "countryCode",
              "type": "string"
            }
          ],
          "internalType": "struct Laboratoire",
          "name": "lab",
          "type": "tuple"
        }
      ],
      "name": "addAMM",
      "outputs": [],
      "stateMutability": "nonpayable",
      "type": "function"
    },
    {
      "inputs": [
        {
          "components": [
            {
              "internalType": "string",
              "name": "nom",
              "type": "string"
            },
            {
              "internalType": "string",
              "name": "dosage",
              "type": "string"
            },
            {
              "internalType": "string",
              "name": "forme",
              "type": "string"
            },
            {
              "internalType": "string",
              "name": "presentation",
              "type": "string"
            },
            {
              "internalType": "string",
              "name": "conditionnement",
              "type": "string"
            },
            {
              "internalType": "string",
              "name": "specification",
              "type": "string"
            },
            {
              "internalType": "string",
              "name": "dci",
              "type": "string"
            },
            {
              "internalType": "string",
              "name": "classement_VEIC",
              "type": "string"
            },
            {
              "internalType": "string",
              "name": "classe_therapeutic",
              "type": "string"
            },
            {
              "internalType": "string",
              "name": "sous_classe",
              "type": "string"
            },
            {
              "internalType": "string",
              "name": "tableau",
              "type": "string"
            },
            {
              "internalType": "string",
              "name": "duree_conservation",
              "type": "string"
            },
            {
              "internalType": "string",
              "name": "generique",
              "type": "string"
            }
          ],
          "internalType": "struct Medicament",
          "name": "medicament",
          "type": "tuple"
        },
        {
          "internalType": "uint256",
          "name": "idAMM",
          "type": "uint256"
        },
        {
          "internalType": "string",
          "name": "date",
          "type": "string"
        },
        {
          "components": [
            {
              "internalType": "string",
              "name": "nom",
              "type": "string"
            },
            {
              "internalType": "string",
              "name": "countryCode",
              "type": "string"
            }
          ],
          "internalType": "struct Laboratoire",
          "name": "lab",
          "type": "tuple"
        },
        {
          "internalType": "enum LocalAuthority.AMMStatus",
          "name": "status",
          "type": "uint8"
        }
      ],
      "name": "updateAMM",
      "outputs": [],
      "stateMutability": "nonpayable",
      "type": "function"
    },
    {
      "inputs": [
        {
          "internalType": "string",
          "name": "nom",
          "type": "string"
        },
        {
          "internalType": "string",
          "name": "dosage",
          "type": "string"
        },
        {
          "internalType": "string",
          "name": "forme",
          "type": "string"
        },
        {
          "internalType": "string",
          "name": "presentation",
          "type": "string"
        }
      ],
      "name": "displayDrugDetails",
      "outputs": [
        {
          "components": [
            {
              "internalType": "string",
              "name": "nom",
              "type": "string"
            },
            {
              "internalType": "string",
              "name": "dosage",
              "type": "string"
            },
            {
              "internalType": "string",
              "name": "forme",
              "type": "string"
            },
            {
              "internalType": "string",
              "name": "presentation",
              "type": "string"
            },
            {
              "internalType": "string",
              "name": "conditionnement",
              "type": "string"
            },
            {
              "internalType": "string",
              "name": "specification",
              "type": "string"
            },
            {
              "internalType": "string",
              "name": "dci",
              "type": "string"
            },
            {
              "internalType": "string",
              "name": "classement_VEIC",
              "type": "string"
            },
            {
              "internalType": "string",
              "name": "classe_therapeutic",
              "type": "string"
            },
            {
              "internalType": "string",
              "name": "sous_classe",
              "type": "string"
            },
            {
              "internalType": "string",
              "name": "tableau",
              "type": "string"
            },
            {
              "internalType": "string",
              "name": "duree_conservation",
              "type": "string"
            },
            {
              "internalType": "string",
              "name": "generique",
              "type": "string"
            }
          ],
          "internalType": "struct Medicament",
          "name": "",
          "type": "tuple"
        }
      ],
      "stateMutability": "view",
      "type": "function",
      "constant": true
    },
    {
      "inputs": [
        {
          "components": [
            {
              "internalType": "address",
              "name": "sender",
              "type": "address"
            },
            {
              "internalType": "string",
              "name": "image",
              "type": "string"
            },
            {
              "internalType": "string",
              "name": "longitude",
              "type": "string"
            },
            {
              "internalType": "string",
              "name": "latitude",
              "type": "string"
            },
            {
              "internalType": "string",
              "name": "nom",
              "type": "string"
            },
            {
              "internalType": "string",
              "name": "dosage",
              "type": "string"
            },
            {
              "internalType": "string",
              "name": "forme",
              "type": "string"
            },
            {
              "internalType": "string",
              "name": "presentation",
              "type": "string"
            }
          ],
          "internalType": "struct LocalAuthority.Reclamation",
          "name": "reclamation",
          "type": "tuple"
        }
      ],
      "name": "sendReclamation",
      "outputs": [],
      "stateMutability": "nonpayable",
      "type": "function"
    }
  ],
  "bytecode": "0x6080604052336000806101000a81548173ffffffffffffffffffffffffffffffffffffffff021916908373ffffffffffffffffffffffffffffffffffffffff160217905550612c63806100536000396000f3fe608060405234801561001057600080fd5b506004361061007d5760003560e01c806373c3e3fd1161005b57806373c3e3fd146100ea5780638da5cb5b14610106578063af8e0bae14610124578063f2fde38b146101545761007d565b806307283816146100825780631ee7f128146100b257806344de4b22146100ce575b600080fd5b61009c60048036036100979190810190612024565b610170565b6040516100a991906129a4565b60405180910390f35b6100cc60048036036100c79190810190612251565b610a14565b005b6100e860048036036100e39190810190612192565b610a86565b005b61010460048036036100ff91908101906120e7565b61111d565b005b61010e611727565b60405161011b919061294c565b60405180910390f35b61013e60048036036101399190810190612024565b61174c565b60405161014b9190612967565b60405180910390f35b61016e60048036036101699190810190611ffb565b6117dc565b005b6101786118aa565b600060038686868660405160200161019394939291906128d0565b6040516020818303038152906040526040516101af91906128b9565b9081526020016040518091039020905080600501604051806101a0016040529081600082018054600181600116156101000203166002900480601f0160208091040260200160405190810160405280929190818152602001828054600181600116156101000203166002900480156102685780601f1061023d57610100808354040283529160200191610268565b820191906000526020600020905b81548152906001019060200180831161024b57829003601f168201915b50505050508152602001600182018054600181600116156101000203166002900480601f01602080910402602001604051908101604052809291908181526020018280546001816001161561010002031660029004801561030a5780601f106102df5761010080835404028352916020019161030a565b820191906000526020600020905b8154815290600101906020018083116102ed57829003601f168201915b50505050508152602001600282018054600181600116156101000203166002900480601f0160208091040260200160405190810160405280929190818152602001828054600181600116156101000203166002900480156103ac5780601f10610381576101008083540402835291602001916103ac565b820191906000526020600020905b81548152906001019060200180831161038f57829003601f168201915b50505050508152602001600382018054600181600116156101000203166002900480601f01602080910402602001604051908101604052809291908181526020018280546001816001161561010002031660029004801561044e5780601f106104235761010080835404028352916020019161044e565b820191906000526020600020905b81548152906001019060200180831161043157829003601f168201915b50505050508152602001600482018054600181600116156101000203166002900480601f0160208091040260200160405190810160405280929190818152602001828054600181600116156101000203166002900480156104f05780601f106104c5576101008083540402835291602001916104f0565b820191906000526020600020905b8154815290600101906020018083116104d357829003601f168201915b50505050508152602001600582018054600181600116156101000203166002900480601f0160208091040260200160405190810160405280929190818152602001828054600181600116156101000203166002900480156105925780601f1061056757610100808354040283529160200191610592565b820191906000526020600020905b81548152906001019060200180831161057557829003601f168201915b50505050508152602001600682018054600181600116156101000203166002900480601f0160208091040260200160405190810160405280929190818152602001828054600181600116156101000203166002900480156106345780601f1061060957610100808354040283529160200191610634565b820191906000526020600020905b81548152906001019060200180831161061757829003601f168201915b50505050508152602001600782018054600181600116156101000203166002900480601f0160208091040260200160405190810160405280929190818152602001828054600181600116156101000203166002900480156106d65780601f106106ab576101008083540402835291602001916106d6565b820191906000526020600020905b8154815290600101906020018083116106b957829003601f168201915b50505050508152602001600882018054600181600116156101000203166002900480601f0160208091040260200160405190810160405280929190818152602001828054600181600116156101000203166002900480156107785780601f1061074d57610100808354040283529160200191610778565b820191906000526020600020905b81548152906001019060200180831161075b57829003601f168201915b50505050508152602001600982018054600181600116156101000203166002900480601f01602080910402602001604051908101604052809291908181526020018280546001816001161561010002031660029004801561081a5780601f106107ef5761010080835404028352916020019161081a565b820191906000526020600020905b8154815290600101906020018083116107fd57829003601f168201915b50505050508152602001600a82018054600181600116156101000203166002900480601f0160208091040260200160405190810160405280929190818152602001828054600181600116156101000203166002900480156108bc5780601f10610891576101008083540402835291602001916108bc565b820191906000526020600020905b81548152906001019060200180831161089f57829003601f168201915b50505050508152602001600b82018054600181600116156101000203166002900480601f01602080910402602001604051908101604052809291908181526020018280546001816001161561010002031660029004801561095e5780601f106109335761010080835404028352916020019161095e565b820191906000526020600020905b81548152906001019060200180831161094157829003601f168201915b50505050508152602001600c82018054600181600116156101000203166002900480601f016020809104026020016040519081016040528092919081815260200182805460018160011615610100020316600290048015610a005780601f106109d557610100808354040283529160200191610a00565b820191906000526020600020905b8154815290600101906020018083116109e357829003601f168201915b505050505081525050915050949350505050565b33816000019073ffffffffffffffffffffffffffffffffffffffff16908173ffffffffffffffffffffffffffffffffffffffff16815250507f7e991f7d8da64ca84ad9195720bbabaad82fa6e50633f664d36cbf805f6cf72481604051610a7b91906129c6565b60405180910390a150565b6000809054906101000a900473ffffffffffffffffffffffffffffffffffffffff1673ffffffffffffffffffffffffffffffffffffffff163373ffffffffffffffffffffffffffffffffffffffff16141561111657600060026000868152602001908152602001600020905084816000018190555083816001019080519060200190610b13929190611912565b50818160020160006101000a81548160ff02191690836002811115610b3457fe5b021790555082816003016000820151816000019080519060200190610b5a929190611992565b506020820151816001019080519060200190610b77929190611992565b5090505085816005016000820151816000019080519060200190610b9c929190611992565b506020820151816001019080519060200190610bb9929190611992565b506040820151816002019080519060200190610bd6929190611992565b506060820151816003019080519060200190610bf3929190611992565b506080820151816004019080519060200190610c10929190611992565b5060a0820151816005019080519060200190610c2d929190611992565b5060c0820151816006019080519060200190610c4a929190611992565b5060e0820151816007019080519060200190610c67929190611992565b50610100820151816008019080519060200190610c85929190611992565b50610120820151816009019080519060200190610ca3929190611992565b5061014082015181600a019080519060200190610cc1929190611992565b5061016082015181600b019080519060200190610cdf929190611992565b5061018082015181600c019080519060200190610cfd929190611992565b509050506002600086815260200190815260200160002060038760000151886020015189604001518a60600151604051602001610d3d949392919061290e565b604051602081830303815290604052604051610d5991906128b9565b90815260200160405180910390206000820154816000015560018201816001019080546001816001161561010002031660029004610d98929190611a12565b506002820160009054906101000a900460ff168160020160006101000a81548160ff02191690836002811115610dca57fe5b0217905550600382018160030160008201816000019080546001816001161561010002031660029004610dfe929190611a12565b5060018201816001019080546001816001161561010002031660029004610e26929190611a12565b505050600582018160050160008201816000019080546001816001161561010002031660029004610e58929190611a12565b5060018201816001019080546001816001161561010002031660029004610e80929190611a12565b5060028201816002019080546001816001161561010002031660029004610ea8929190611a12565b5060038201816003019080546001816001161561010002031660029004610ed0929190611a12565b5060048201816004019080546001816001161561010002031660029004610ef8929190611a12565b5060058201816005019080546001816001161561010002031660029004610f20929190611a12565b5060068201816006019080546001816001161561010002031660029004610f48929190611a12565b5060078201816007019080546001816001161561010002031660029004610f70929190611a12565b5060088201816008019080546001816001161561010002031660029004610f98929190611a12565b5060098201816009019080546001816001161561010002031660029004610fc0929190611a12565b50600a820181600a019080546001816001161561010002031660029004610fe8929190611a12565b50600b820181600b019080546001816001161561010002031660029004611010929190611a12565b50600c820181600c019080546001816001161561010002031660029004611038929190611a12565b50505090505060028081111561104a57fe5b82600281111561105657fe5b14156110aa577f291504b222a76cc0899b7e8b6de59b190953ec3b487d1272327326ae99b3202d6002600087815260200190815260200160002060405161109d9190612982565b60405180910390a1611114565b600160028111156110b757fe5b8260028111156110c357fe5b1415611113577f02d7ceded2b0510171bcfbef19de9ed270d025b3108c9a1b1bb67b247a063d956002600087815260200190815260200160002060405161110a9190612982565b60405180910390a15b5b505b5050505050565b6000809054906101000a900473ffffffffffffffffffffffffffffffffffffffff1673ffffffffffffffffffffffffffffffffffffffff163373ffffffffffffffffffffffffffffffffffffffff161415611721576000600260008581526020019081526020016000209050838160000181905550828160010190805190602001906111aa929190611912565b5060008160020160006101000a81548160ff021916908360028111156111cc57fe5b0217905550818160030160008201518160000190805190602001906111f2929190611992565b50602082015181600101908051906020019061120f929190611992565b5090505084816005016000820151816000019080519060200190611234929190611992565b506020820151816001019080519060200190611251929190611992565b50604082015181600201908051906020019061126e929190611992565b50606082015181600301908051906020019061128b929190611992565b5060808201518160040190805190602001906112a8929190611992565b5060a08201518160050190805190602001906112c5929190611992565b5060c08201518160060190805190602001906112e2929190611992565b5060e08201518160070190805190602001906112ff929190611992565b5061010082015181600801908051906020019061131d929190611992565b5061012082015181600901908051906020019061133b929190611992565b5061014082015181600a019080519060200190611359929190611992565b5061016082015181600b019080519060200190611377929190611992565b5061018082015181600c019080519060200190611395929190611992565b5090505060026000858152602001908152602001600020600386600001518760200151886040015189606001516040516020016113d5949392919061290e565b6040516020818303038152906040526040516113f191906128b9565b90815260200160405180910390206000820154816000015560018201816001019080546001816001161561010002031660029004611430929190611a12565b506002820160009054906101000a900460ff168160020160006101000a81548160ff0219169083600281111561146257fe5b0217905550600382018160030160008201816000019080546001816001161561010002031660029004611496929190611a12565b50600182018160010190805460018160011615610100020316600290046114be929190611a12565b5050506005820181600501600082018160000190805460018160011615610100020316600290046114f0929190611a12565b5060018201816001019080546001816001161561010002031660029004611518929190611a12565b5060028201816002019080546001816001161561010002031660029004611540929190611a12565b5060038201816003019080546001816001161561010002031660029004611568929190611a12565b5060048201816004019080546001816001161561010002031660029004611590929190611a12565b50600582018160050190805460018160011615610100020316600290046115b8929190611a12565b50600682018160060190805460018160011615610100020316600290046115e0929190611a12565b5060078201816007019080546001816001161561010002031660029004611608929190611a12565b5060088201816008019080546001816001161561010002031660029004611630929190611a12565b5060098201816009019080546001816001161561010002031660029004611658929190611a12565b50600a820181600a019080546001816001161561010002031660029004611680929190611a12565b50600b820181600b0190805460018160011615610100020316600290046116a8929190611a12565b50600c820181600c0190805460018160011615610100020316600290046116d0929190611a12565b5050509050507f6cdc66796a1a74fc91a498c22584242896f361db57c9556297c0170dce82ef9f600260008681526020019081526020016000206040516117179190612982565b60405180910390a1505b50505050565b6000809054906101000a900473ffffffffffffffffffffffffffffffffffffffff1681565b60008060038686868660405160200161176894939291906128d0565b60405160208183030381529060405260405161178491906128b9565b90815260200160405180910390209050600060028111156117a157fe5b8160020160009054906101000a900460ff1660028111156117be57fe5b14156117ce5760019150506117d4565b60009150505b949350505050565b6000809054906101000a900473ffffffffffffffffffffffffffffffffffffffff1673ffffffffffffffffffffffffffffffffffffffff163373ffffffffffffffffffffffffffffffffffffffff1614156118a757600073ffffffffffffffffffffffffffffffffffffffff168173ffffffffffffffffffffffffffffffffffffffff16146118a657806000806101000a81548173ffffffffffffffffffffffffffffffffffffffff021916908373ffffffffffffffffffffffffffffffffffffffff1602179055505b5b50565b604051806101a00160405280606081526020016060815260200160608152602001606081526020016060815260200160608152602001606081526020016060815260200160608152602001606081526020016060815260200160608152602001606081525090565b828054600181600116156101000203166002900490600052602060002090601f016020900481019282601f1061195357805160ff1916838001178555611981565b82800160010185558215611981579182015b82811115611980578251825591602001919060010190611965565b5b50905061198e9190611a99565b5090565b828054600181600116156101000203166002900490600052602060002090601f016020900481019282601f106119d357805160ff1916838001178555611a01565b82800160010185558215611a01579182015b82811115611a005782518255916020019190600101906119e5565b5b509050611a0e9190611a99565b5090565b828054600181600116156101000203166002900490600052602060002090601f016020900481019282601f10611a4b5780548555611a88565b82800160010185558215611a8857600052602060002091601f016020900482015b82811115611a87578254825591600101919060010190611a6c565b5b509050611a959190611a99565b5090565b611abb91905b80821115611ab7576000816000905550600101611a9f565b5090565b90565b600081359050611acd81612bef565b92915050565b600081359050611ae281612c06565b92915050565b600082601f830112611af957600080fd5b8135611b0c611b0782612a15565b6129e8565b91508082526020830160208301858383011115611b2857600080fd5b611b33838284612b4e565b50505092915050565b600082601f830112611b4d57600080fd5b8135611b60611b5b82612a41565b6129e8565b91508082526020830160208301858383011115611b7c57600080fd5b611b87838284612b4e565b50505092915050565b600060408284031215611ba257600080fd5b611bac60406129e8565b9050600082013567ffffffffffffffff811115611bc857600080fd5b611bd484828501611ae8565b600083015250602082013567ffffffffffffffff811115611bf457600080fd5b611c0084828501611ae8565b60208301525092915050565b60006101a08284031215611c1f57600080fd5b611c2a6101a06129e8565b9050600082013567ffffffffffffffff811115611c4657600080fd5b611c5284828501611ae8565b600083015250602082013567ffffffffffffffff811115611c7257600080fd5b611c7e84828501611ae8565b602083015250604082013567ffffffffffffffff811115611c9e57600080fd5b611caa84828501611ae8565b604083015250606082013567ffffffffffffffff811115611cca57600080fd5b611cd684828501611ae8565b606083015250608082013567ffffffffffffffff811115611cf657600080fd5b611d0284828501611ae8565b60808301525060a082013567ffffffffffffffff811115611d2257600080fd5b611d2e84828501611ae8565b60a08301525060c082013567ffffffffffffffff811115611d4e57600080fd5b611d5a84828501611ae8565b60c08301525060e082013567ffffffffffffffff811115611d7a57600080fd5b611d8684828501611ae8565b60e08301525061010082013567ffffffffffffffff811115611da757600080fd5b611db384828501611ae8565b6101008301525061012082013567ffffffffffffffff811115611dd557600080fd5b611de184828501611ae8565b6101208301525061014082013567ffffffffffffffff811115611e0357600080fd5b611e0f84828501611ae8565b6101408301525061016082013567ffffffffffffffff811115611e3157600080fd5b611e3d84828501611ae8565b6101608301525061018082013567ffffffffffffffff811115611e5f57600080fd5b611e6b84828501611ae8565b6101808301525092915050565b60006101008284031215611e8b57600080fd5b611e966101006129e8565b90506000611ea684828501611abe565b600083015250602082013567ffffffffffffffff811115611ec657600080fd5b611ed284828501611ae8565b602083015250604082013567ffffffffffffffff811115611ef257600080fd5b611efe84828501611ae8565b604083015250606082013567ffffffffffffffff811115611f1e57600080fd5b611f2a84828501611ae8565b606083015250608082013567ffffffffffffffff811115611f4a57600080fd5b611f5684828501611ae8565b60808301525060a082013567ffffffffffffffff811115611f7657600080fd5b611f8284828501611ae8565b60a08301525060c082013567ffffffffffffffff811115611fa257600080fd5b611fae84828501611ae8565b60c08301525060e082013567ffffffffffffffff811115611fce57600080fd5b611fda84828501611ae8565b60e08301525092915050565b600081359050611ff581612c16565b92915050565b60006020828403121561200d57600080fd5b600061201b84828501611abe565b91505092915050565b6000806000806080858703121561203a57600080fd5b600085013567ffffffffffffffff81111561205457600080fd5b61206087828801611b3c565b945050602085013567ffffffffffffffff81111561207d57600080fd5b61208987828801611b3c565b935050604085013567ffffffffffffffff8111156120a657600080fd5b6120b287828801611b3c565b925050606085013567ffffffffffffffff8111156120cf57600080fd5b6120db87828801611b3c565b91505092959194509250565b600080600080608085870312156120fd57600080fd5b600085013567ffffffffffffffff81111561211757600080fd5b61212387828801611c0c565b945050602061213487828801611fe6565b935050604085013567ffffffffffffffff81111561215157600080fd5b61215d87828801611b3c565b925050606085013567ffffffffffffffff81111561217a57600080fd5b61218687828801611b90565b91505092959194509250565b600080600080600060a086880312156121aa57600080fd5b600086013567ffffffffffffffff8111156121c457600080fd5b6121d088828901611c0c565b95505060206121e188828901611fe6565b945050604086013567ffffffffffffffff8111156121fe57600080fd5b61220a88828901611b3c565b935050606086013567ffffffffffffffff81111561222757600080fd5b61223388828901611b90565b925050608061224488828901611ad3565b9150509295509295909350565b60006020828403121561226357600080fd5b600082013567ffffffffffffffff81111561227d57600080fd5b61228984828501611e78565b91505092915050565b61229b81612ae1565b82525050565b6122aa81612ae1565b82525050565b6122b981612af3565b82525050565b60006122ca82612a82565b6122d48185612aa3565b93506122e4818560208601612b5d565b80840191505092915050565b6122f981612b3c565b82525050565b600061230a82612a98565b6123148185612abf565b9350612324818560208601612b5d565b80840191505092915050565b600061233b82612a8d565b6123458185612aae565b9350612355818560208601612b5d565b61235e81612bc4565b840191505092915050565b600061237482612a8d565b61237e8185612abf565b935061238e818560208601612b5d565b80840191505092915050565b6000815460018116600081146123b757600181146123dd57612421565b607f60028304166123c88187612aae565b955060ff198316865260208601935050612421565b600282046123eb8187612aae565b95506123f685612a6d565b60005b82811015612418578154818901526001820191506020810190506123f9565b80880195505050505b505092915050565b600060a08301600080840154905061244081612baa565b61244d60008701826128aa565b50600184018583036020870152612464838261239a565b9250506002840154905061247781612b90565b61248460408701826122f0565b5060038401858303606087015261249b83826124c2565b9250506005840185830360808701526124b48382612673565b925050819250505092915050565b600060408301600080840185830360008701526124df838261239a565b9250506001840185830360208701526124f8838261239a565b925050819250505092915050565b60006101a08301600083015184820360008601526125248282612330565b9150506020830151848203602086015261253e8282612330565b915050604083015184820360408601526125588282612330565b915050606083015184820360608601526125728282612330565b9150506080830151848203608086015261258c8282612330565b91505060a083015184820360a08601526125a68282612330565b91505060c083015184820360c08601526125c08282612330565b91505060e083015184820360e08601526125da8282612330565b9150506101008301518482036101008601526125f68282612330565b9150506101208301518482036101208601526126128282612330565b91505061014083015184820361014086015261262e8282612330565b91505061016083015184820361016086015261264a8282612330565b9150506101808301518482036101808601526126668282612330565b9150508091505092915050565b60006101a0830160008084018583036000870152612691838261239a565b9250506001840185830360208701526126aa838261239a565b9250506002840185830360408701526126c3838261239a565b9250506003840185830360608701526126dc838261239a565b9250506004840185830360808701526126f5838261239a565b9250506005840185830360a087015261270e838261239a565b9250506006840185830360c0870152612727838261239a565b9250506007840185830360e0870152612740838261239a565b9250506008840185830361010087015261275a838261239a565b92505060098401858303610120870152612774838261239a565b925050600a840185830361014087015261278e838261239a565b925050600b84018583036101608701526127a8838261239a565b925050600c84018583036101808701526127c2838261239a565b925050819250505092915050565b6000610100830160008301516127e96000860182612292565b50602083015184820360208601526128018282612330565b9150506040830151848203604086015261281b8282612330565b915050606083015184820360608601526128358282612330565b9150506080830151848203608086015261284f8282612330565b91505060a083015184820360a08601526128698282612330565b91505060c083015184820360c08601526128838282612330565b91505060e083015184820360e086015261289d8282612330565b9150508091505092915050565b6128b381612b32565b82525050565b60006128c582846122bf565b915081905092915050565b60006128dc82876122ff565b91506128e882866122ff565b91506128f482856122ff565b915061290082846122ff565b915081905095945050505050565b600061291a8287612369565b91506129268286612369565b91506129328285612369565b915061293e8284612369565b915081905095945050505050565b600060208201905061296160008301846122a1565b92915050565b600060208201905061297c60008301846122b0565b92915050565b6000602082019050818103600083015261299c8184612429565b905092915050565b600060208201905081810360008301526129be8184612506565b905092915050565b600060208201905081810360008301526129e081846127d0565b905092915050565b6000604051905081810181811067ffffffffffffffff82111715612a0b57600080fd5b8060405250919050565b600067ffffffffffffffff821115612a2c57600080fd5b601f19601f8301169050602081019050919050565b600067ffffffffffffffff821115612a5857600080fd5b601f19601f8301169050602081019050919050565b60008190508160005260206000209050919050565b600081519050919050565b600081519050919050565b600081519050919050565b600081905092915050565b600082825260208201905092915050565b600081905092915050565b600060ff82169050919050565b6000819050919050565b6000612aec82612b12565b9050919050565b60008115159050919050565b6000819050612b0d82612be2565b919050565b600073ffffffffffffffffffffffffffffffffffffffff82169050919050565b6000819050919050565b6000612b4782612aff565b9050919050565b82818337600083830152505050565b60005b83811015612b7b578082015181840152602081019050612b60565b83811115612b8a576000848401525b50505050565b6000612ba3612b9e83612bd5565b612aca565b9050919050565b6000612bbd612bb883612bd5565b612ad7565b9050919050565b6000601f19601f8301169050919050565b60008160001c9050919050565b60038110612bec57fe5b50565b612bf881612ae1565b8114612c0357600080fd5b50565b60038110612c1357600080fd5b50565b612c1f81612b32565b8114612c2a57600080fd5b5056fea26469706673582212208cbdb58a92765532e4eac9a2ec06bc78ebeedcde90af9dac9512cdc00c4d44a864736f6c63430006000033",
  "source": "// SPDX-License-Identifier: GPL-3.0\r\npragma solidity >=0.4.22 <0.9.0;\r\npragma experimental ABIEncoderV2;\r\n\r\nimport './Ownable.sol';\r\nimport './OMS.sol';\r\n\r\ncontract LocalAuthority is Ownable {\r\n  string countryCode;\r\n\r\n  enum AMMStatus { Active, Suspended, Deleted }\r\n  struct AMM{\r\n      uint AMM;\r\n      string dateAMM;\r\n      AMMStatus status;\r\n      Laboratoire lab;\r\n      Medicament medicament;\r\n  }\r\n\r\n  struct Reclamation{\r\n      address sender;\r\n      string image;\r\n      string longitude;\r\n      string latitude;\r\n      string nom;\r\n      string dosage;\r\n      string forme;\r\n      string presentation;\r\n  }\r\n\r\n  mapping (uint => AMM) listAMM;\r\n  mapping (bytes => AMM) ammByMedicament;\r\n\r\n\r\n  event AMMAdded(AMM amm);\r\n  event AMMDeleted(AMM amm);\r\n  event AMMSuspended(AMM amm);\r\n  event reclamationReceived(Reclamation reclamation);\r\n\r\n  function checkDrugVeracity(string memory nom, string memory dosage, string memory forme, string memory presentation) view public returns(bool) {\r\n    AMM storage amm = ammByMedicament[abi.encodePacked(nom,dosage,forme,presentation)];\r\n    if (amm.status == AMMStatus.Active){\r\n      return true;\r\n    }else{\r\n      return false;\r\n    }\r\n  }\r\n\r\n  function addAMM(Medicament memory medicament,uint idAMM,string memory date, Laboratoire memory lab) public onlyOwner {\r\n    AMM storage amm = listAMM[idAMM];\r\n    amm.AMM = idAMM;\r\n    amm.dateAMM=date;\r\n    amm.status = AMMStatus.Active;\r\n    amm.lab = lab;\r\n    amm.medicament = medicament;\r\n    ammByMedicament[abi.encodePacked(medicament.nom,medicament.dosage,medicament.forme,medicament.presentation)] = listAMM[idAMM];\r\n    emit AMMAdded(listAMM[idAMM]);\r\n  }\r\n\r\n  function updateAMM(Medicament memory medicament,uint idAMM,string memory date, Laboratoire memory lab, AMMStatus status) public onlyOwner {\r\n    AMM storage amm = listAMM[idAMM];\r\n    amm.AMM = idAMM;\r\n    amm.dateAMM=date;\r\n    amm.status = status;\r\n    amm.lab = lab;\r\n    amm.medicament = medicament;\r\n    ammByMedicament[abi.encodePacked(medicament.nom,medicament.dosage,medicament.forme,medicament.presentation)] = listAMM[idAMM];\r\n    if (status == AMMStatus.Deleted){\r\n      emit AMMDeleted(listAMM[idAMM]);\r\n    }else if (status == AMMStatus.Suspended){\r\n      emit AMMSuspended(listAMM[idAMM]);\r\n    }\r\n  }\r\n\r\n  function displayDrugDetails(string memory nom, string memory dosage, string memory forme, string memory presentation) view public returns(Medicament memory) {\r\n    AMM storage amm = ammByMedicament[abi.encodePacked(nom,dosage,forme,presentation)];\r\n    return amm.medicament;\r\n  }\r\n\r\n  \r\n  function sendReclamation(Reclamation memory reclamation) public {\r\n        reclamation.sender = msg.sender;\r\n        emit reclamationReceived(reclamation);\r\n  }\r\n\r\n\r\n  \r\n}",
  "sourcePath": "C:/Users/ineso/Desktop/GL4/Semestre 2/PFA/PFA/contracts/LocalAuthority.sol",
  "compiler": {
    "name": "solc",
    "version": "0.6.0+commit.26b70077.Emscripten.clang"
  },
  "schemaVersion": "3.3.4",
  "updatedAt": "2021-05-03T16:27:47.336Z",
  "networkType": "ethereum",
  "devdoc": {
    "methods": {}
  },
  "userdoc": {
    "methods": {}
  }
}