{
  "contractName": "OMS",
  "abi": [
    {
      "inputs": [],
      "name": "owner",
      "outputs": [
        {
          "internalType": "address",
          "name": "",
          "type": "address"
        }
      ],
      "stateMutability": "view",
      "type": "function",
      "constant": true
    },
    {
      "inputs": [
        {
          "internalType": "address",
          "name": "newOwner",
          "type": "address"
        }
      ],
      "name": "transferOwnership",
      "outputs": [],
      "stateMutability": "nonpayable",
      "type": "function"
    },
    {
      "inputs": [
        {
          "internalType": "string",
          "name": "dci",
          "type": "string"
        }
      ],
      "name": "checkProhibitedDrug",
      "outputs": [
        {
          "internalType": "bool",
          "name": "",
          "type": "bool"
        }
      ],
      "stateMutability": "view",
      "type": "function",
      "constant": true
    },
    {
      "inputs": [
        {
          "components": [
            {
              "internalType": "string",
              "name": "nom",
              "type": "string"
            },
            {
              "internalType": "string",
              "name": "dosage",
              "type": "string"
            },
            {
              "internalType": "string",
              "name": "forme",
              "type": "string"
            },
            {
              "internalType": "string",
              "name": "presentation",
              "type": "string"
            },
            {
              "internalType": "string",
              "name": "conditionnement",
              "type": "string"
            },
            {
              "internalType": "string",
              "name": "specification",
              "type": "string"
            },
            {
              "internalType": "string",
              "name": "dci",
              "type": "string"
            },
            {
              "internalType": "string",
              "name": "classement_VEIC",
              "type": "string"
            },
            {
              "internalType": "string",
              "name": "classe_therapeutic",
              "type": "string"
            },
            {
              "internalType": "string",
              "name": "sous_classe",
              "type": "string"
            },
            {
              "internalType": "string",
              "name": "tableau",
              "type": "string"
            },
            {
              "internalType": "string",
              "name": "duree_conservation",
              "type": "string"
            },
            {
              "internalType": "string",
              "name": "generique",
              "type": "string"
            }
          ],
          "internalType": "struct Medicament",
          "name": "medicament",
          "type": "tuple"
        }
      ],
      "name": "addOrUpdateProhibitedDrug",
      "outputs": [],
      "stateMutability": "nonpayable",
      "type": "function"
    },
    {
      "inputs": [
        {
          "internalType": "string",
          "name": "countryCode",
          "type": "string"
        },
        {
          "internalType": "address",
          "name": "localAuthority",
          "type": "address"
        }
      ],
      "name": "addOrUpdateLocalAuthority",
      "outputs": [
        {
          "internalType": "address",
          "name": "",
          "type": "address"
        }
      ],
      "stateMutability": "nonpayable",
      "type": "function"
    }
  ],
  "bytecode": "0x6080604052336000806101000a81548173ffffffffffffffffffffffffffffffffffffffff021916908373ffffffffffffffffffffffffffffffffffffffff160217905550610d92806100536000396000f3fe608060405234801561001057600080fd5b50600436106100575760003560e01c8063394950301461005c57806372c6db9a146100785780638da5cb5b146100a8578063e53bd3b7146100c6578063f2fde38b146100f6575b600080fd5b61007660048036036100719190810190610a11565b610112565b005b610092600480360361008d919081019061097c565b61030f565b60405161009f9190610bef565b60405180910390f35b6100b0610396565b6040516100bd9190610bd4565b60405180910390f35b6100e060048036036100db91908101906109bd565b6103bb565b6040516100ed9190610bd4565b60405180910390f35b610110600480360361010b9190810190610953565b6104b7565b005b6000809054906101000a900473ffffffffffffffffffffffffffffffffffffffff1673ffffffffffffffffffffffffffffffffffffffff163373ffffffffffffffffffffffffffffffffffffffff16141561030c578060028260c0015160405161017c9190610b7a565b908152602001604051809103902060008201518160000190805190602001906101a6929190610585565b5060208201518160010190805190602001906101c3929190610585565b5060408201518160020190805190602001906101e0929190610585565b5060608201518160030190805190602001906101fd929190610585565b50608082015181600401908051906020019061021a929190610585565b5060a0820151816005019080519060200190610237929190610585565b5060c0820151816006019080519060200190610254929190610585565b5060e0820151816007019080519060200190610271929190610585565b5061010082015181600801908051906020019061028f929190610585565b506101208201518160090190805190602001906102ad929190610585565b5061014082015181600a0190805190602001906102cb929190610585565b5061016082015181600b0190805190602001906102e9929190610585565b5061018082015181600c019080519060200190610307929190610585565b509050505b50565b600060405160200161032090610bbf565b604051602081830303815290604052805190602001206002836040516103469190610b91565b90815260200160405180910390206006016040516020016103679190610ba8565b60405160208183030381529060405280519060200120141561038c5760009050610391565b600190505b919050565b6000809054906101000a900473ffffffffffffffffffffffffffffffffffffffff1681565b60008060009054906101000a900473ffffffffffffffffffffffffffffffffffffffff1673ffffffffffffffffffffffffffffffffffffffff163373ffffffffffffffffffffffffffffffffffffffff1614156104b157816001846040516104239190610b91565b908152602001604051809103902060006101000a81548173ffffffffffffffffffffffffffffffffffffffff021916908373ffffffffffffffffffffffffffffffffffffffff16021790555060018360405161047f9190610b91565b908152602001604051809103902060009054906101000a900473ffffffffffffffffffffffffffffffffffffffff1690505b92915050565b6000809054906101000a900473ffffffffffffffffffffffffffffffffffffffff1673ffffffffffffffffffffffffffffffffffffffff163373ffffffffffffffffffffffffffffffffffffffff16141561058257600073ffffffffffffffffffffffffffffffffffffffff168173ffffffffffffffffffffffffffffffffffffffff161461058157806000806101000a81548173ffffffffffffffffffffffffffffffffffffffff021916908373ffffffffffffffffffffffffffffffffffffffff1602179055505b5b50565b828054600181600116156101000203166002900490600052602060002090601f016020900481019282601f106105c657805160ff19168380011785556105f4565b828001600101855582156105f4579182015b828111156105f35782518255916020019190600101906105d8565b5b5090506106019190610605565b5090565b61062791905b8082111561062357600081600090555060010161060b565b5090565b90565b60008135905061063981610d45565b92915050565b600082601f83011261065057600080fd5b813561066361065e82610c37565b610c0a565b9150808252602083016020830185838301111561067f57600080fd5b61068a838284610d03565b50505092915050565b600082601f8301126106a457600080fd5b81356106b76106b282610c63565b610c0a565b915080825260208301602083018583830111156106d357600080fd5b6106de838284610d03565b50505092915050565b60006101a082840312156106fa57600080fd5b6107056101a0610c0a565b9050600082013567ffffffffffffffff81111561072157600080fd5b61072d8482850161063f565b600083015250602082013567ffffffffffffffff81111561074d57600080fd5b6107598482850161063f565b602083015250604082013567ffffffffffffffff81111561077957600080fd5b6107858482850161063f565b604083015250606082013567ffffffffffffffff8111156107a557600080fd5b6107b18482850161063f565b606083015250608082013567ffffffffffffffff8111156107d157600080fd5b6107dd8482850161063f565b60808301525060a082013567ffffffffffffffff8111156107fd57600080fd5b6108098482850161063f565b60a08301525060c082013567ffffffffffffffff81111561082957600080fd5b6108358482850161063f565b60c08301525060e082013567ffffffffffffffff81111561085557600080fd5b6108618482850161063f565b60e08301525061010082013567ffffffffffffffff81111561088257600080fd5b61088e8482850161063f565b6101008301525061012082013567ffffffffffffffff8111156108b057600080fd5b6108bc8482850161063f565b6101208301525061014082013567ffffffffffffffff8111156108de57600080fd5b6108ea8482850161063f565b6101408301525061016082013567ffffffffffffffff81111561090c57600080fd5b6109188482850161063f565b6101608301525061018082013567ffffffffffffffff81111561093a57600080fd5b6109468482850161063f565b6101808301525092915050565b60006020828403121561096557600080fd5b60006109738482850161062a565b91505092915050565b60006020828403121561098e57600080fd5b600082013567ffffffffffffffff8111156109a857600080fd5b6109b484828501610693565b91505092915050565b600080604083850312156109d057600080fd5b600083013567ffffffffffffffff8111156109ea57600080fd5b6109f685828601610693565b9250506020610a078582860161062a565b9150509250929050565b600060208284031215610a2357600080fd5b600082013567ffffffffffffffff811115610a3d57600080fd5b610a49848285016106e7565b91505092915050565b610a5b81610cc5565b82525050565b610a6a81610cd7565b82525050565b6000610a7b82610caf565b610a858185610cba565b9350610a95818560208601610d12565b80840191505092915050565b6000610aac82610ca4565b610ab68185610cba565b9350610ac6818560208601610d12565b80840191505092915050565b600081546001811660008114610aef5760018114610b1457610b58565b607f6002830416610b008187610cba565b955060ff1983168652808601935050610b58565b60028204610b228187610cba565b9550610b2d85610c8f565b60005b82811015610b4f57815481890152600182019150602081019050610b30565b82880195505050505b505092915050565b6000610b6d600083610cba565b9150600082019050919050565b6000610b868284610aa1565b915081905092915050565b6000610b9d8284610a70565b915081905092915050565b6000610bb48284610ad2565b915081905092915050565b6000610bca82610b60565b9150819050919050565b6000602082019050610be96000830184610a52565b92915050565b6000602082019050610c046000830184610a61565b92915050565b6000604051905081810181811067ffffffffffffffff82111715610c2d57600080fd5b8060405250919050565b600067ffffffffffffffff821115610c4e57600080fd5b601f19601f8301169050602081019050919050565b600067ffffffffffffffff821115610c7a57600080fd5b601f19601f8301169050602081019050919050565b60008190508160005260206000209050919050565b600081519050919050565b600081519050919050565b600081905092915050565b6000610cd082610ce3565b9050919050565b60008115159050919050565b600073ffffffffffffffffffffffffffffffffffffffff82169050919050565b82818337600083830152505050565b60005b83811015610d30578082015181840152602081019050610d15565b83811115610d3f576000848401525b50505050565b610d4e81610cc5565b8114610d5957600080fd5b5056fea264697066735822122042738fae5cdb69ef7cfcabc55e399a30424e0d465101d47f993734ea2fb2696164736f6c63430006000033",
  "source": "// SPDX-License-Identifier: GPL-3.0\r\npragma solidity >=0.4.22 <0.9.0;\r\npragma experimental ABIEncoderV2;\r\n\r\nimport './Ownable.sol';\r\n\r\n\r\nstruct Medicament{\r\n      string nom;\r\n      string dosage;\r\n      string forme;\r\n      string presentation;\r\n      string conditionnement;\r\n      string specification;\r\n      string dci;\r\n      string classement_VEIC; //change to enum\r\n      string classe_therapeutic;\r\n      string sous_classe;\r\n      string tableau;\r\n      string duree_conservation;\r\n      string generique; //change to enum\r\n}\r\n\r\nstruct Laboratoire{\r\n      string nom;\r\n      string countryCode;\r\n}\r\n\r\n\r\n\r\n\r\ncontract OMS is Ownable {\r\n\r\n  mapping (string => address) countryToAddress;\r\n  mapping (string => Medicament) DCITomedicamentsInterdis;\r\n  mapping (string => Laboratoire) listLabos;\r\n  \r\n\r\n//returns true if prohibited\r\n  function checkProhibitedDrug(string memory dci) view public returns(bool){\r\n        if (keccak256(abi.encodePacked(DCITomedicamentsInterdis[dci].dci)) == keccak256(abi.encodePacked(\"\"))){\r\n              return false;\r\n        }else{\r\n              return true;\r\n        }\r\n  }\r\n\r\n  function addOrUpdateProhibitedDrug(Medicament memory medicament) public onlyOwner {\r\n       DCITomedicamentsInterdis[medicament.dci] = medicament;\r\n  }\r\n\r\n  function addOrUpdateLocalAuthority(string memory countryCode, address localAuthority) public onlyOwner returns (address) {\r\n        countryToAddress[countryCode] = localAuthority; \r\n        return countryToAddress[countryCode];\r\n  }\r\n\r\n  \r\n\r\n  \r\n}",
  "sourcePath": "C:/Users/ineso/Desktop/GL4/Semestre 2/PFA/PFA/contracts/OMS.sol",
  "compiler": {
    "name": "solc",
    "version": "0.6.0+commit.26b70077.Emscripten.clang"
  },
  "schemaVersion": "3.3.4",
  "updatedAt": "2021-05-03T16:27:47.327Z",
  "networkType": "ethereum",
  "devdoc": {
    "methods": {}
  },
  "userdoc": {
    "methods": {}
  }
}